:100000000C947B000C94A3000C94A3000C943E0D64
:100010000C943E0D0C943E0D0C94A3000C94A30084
:100020000C94A3000C94A3000C94A3000C94130F45
:100030000C94A3000C94A3000C94A3000C94A300B4
:100040000C94F40C0C94A3000C945F0B0C94D40946
:100050000C94A3000C94A3000C94A3000C94A30094
:100060000C94630D0C94A300CD03F403BB030E04A6
:100070002E04620456046204620462049104DD03E7
:10008000130829087A072908CA072908580700070A
:1000900029082908290829082908DA052908B7069E
:1000A0002908440700000000240027002A0000005F
:1000B0000000250028002B000404040404040404A8
:1000C0000202020202020303030303030102040803
:1000D00010204080010204081020010204081020B2
:1000E00000000008000201000003040700000000F7
:1000F00000000000D40F11241FBECFEFD8E0DEBFF8
:10010000CDBF12E0A0E0B1E0E2E7FAE202C0059064
:100110000D92A633B107D9F725E0A6E3B2E001C0FE
:100120001D92AF32B207E1F710E0CBE7D0E004C098
:100130002197FE010E94F013CA37D107C9F70E9428
:100140005F100C9437150C940000A82FB0E0A15656
:10015000BB4F9C91292F30E0F901EE0FFF1F2E0FAE
:100160003F1FF901EF58FB4FE081F0E09F01220FA4
:10017000331FE20FF31FE45BFB4F80818F7B808393
:1001800080919D04981306C0992379F09150909323
:100190009D040BC0882349F0E0919E04EF5FE0933B
:1001A0009E04F0E0EB5CFD4F90838FEF8C930895FD
:1001B0009EEF980F923180F4E82FF0E0DF01A55117
:1001C000BC4F9C91913041F4EE0FFF1FEF5FFB4F4E
:1001D000608371830C941B0C0895CF93883080F555
:1001E0004091B6025091B70221E030E0672B81F4D4
:1001F000B90102C0660F771F8A95E2F7CB0180959F
:100200009095842395239093B7028093B60218C0EB
:10021000082E02C0220F331F0A94E2F7242B352B3D
:100220003093B7022093B6029091B904911108C09F
:10023000C82F0E94A30CBC018C2FCF910C940E09E7
:10024000CF910895BF92CF92DF92EF92FF920F93DA
:100250001F93CF93DF9300D0CDB7DEB7833008F084
:1002600081C0282F220F220F220F285F273108F08C
:1002700026E1B62EF82EE82EEE0CEE0CEE0C30E059
:10028000CC24C394E21610F58EEF8E0D8231D8F493
:100290000E2D10E0F801E551FC4F9081923098F45A
:1002A000DD24D3948C2D8B2109F4D12C000F111F48
:1002B000913009F043C03C29F801EF5FFB4F8D2DD1
:1002C00090E091838083CC0CE394DCCFF1100AC0E2
:1002D0003C7FF8948BB1632F609568233B21632B9F
:1002E0006BB92AC081E0F8121AC02B2D2323F89491
:1002F00095B1832F8F7380958923922F9F73892BBC
:1003000085B988B122952695269523703295369524
:100310003695337030958323822B88B90DC03F709A
:10032000F89488B1632F660F660F609568233B21B0
:10033000330F330F632B68B9789414C0DD2009F4B0
:10034000BBCFF801EF5FFB4F80819181019709F4EA
:10035000B3CF62E08E2D2A8339830E94670C2A81F5
:100360003981AACF0F900F90DF91CF911F910F91FC
:10037000FF90EF90DF90CF90BF9008956F927F92A3
:100380008F929F92AF92BF92CF92DF92EF92FF92A5
:100390000F931F93CF93DF931F92CDB7DEB7982FA4
:1003A0003B01863108F004C1082F10E0F801E55147
:1003B000FC4F8081833009F490C0843009F0F8C08C
:1003C0009250923108F0EDC0F801E156FB4FE08009
:1003D000F12C6701CC0CDD1C603282E078070CF058
:1003E00042C077FD05C0653B710524F4DB0104C004
:1003F000A0E001C0A4EBB0E0F601EE0DFF1DEF5848
:10040000FB4F818128E830E04901881A910887FD77
:100410009394880C991C880C991C092C000CAA0830
:10042000BB08828128E532E0281B310987FD33951E
:10043000220F331F220F331FA901330F660B770BD7
:100440009A01AB01281939094A095B090E94AB13CB
:1004500024EB30E040E050E00E948113820E931EB6
:10046000A41EB51E01C04B01F601EE0DFF1DEF5895
:10047000FB4F20812C3008F094C0318188E890E057
:10048000831B910937FD9395880F991F880F991F3A
:100490008816990684F0828148E552E0481B51098C
:1004A00087FD5395440F551F440F551FC401481530
:1004B00059050CF4CA010297880F991F4FB7F89499
:1004C00030E0F901EE0FFF1F2E0F3F1FF901E45B33
:1004D000FB4F928381834FBF64C0933049F08BEF11
:1004E000890F823028F087EF890F833008F059C0D8
:1004F00061E0892F99830E94670C998161147104CE
:1005000011F460E005C08FEF6816710429F461E012
:10051000892F0E941B0C45C0F801E052FF4FE49167
:10052000E330F9F048F4E130B9F0E230A1F584B5F8
:10053000806284BD68BC35C0E730E9F0E83019F16D
:10054000E43049F580918000806280938000709251
:100550008B0060928A0025C084B5806884BD67BC2A
:1005600020C0809180008068809380007092890014
:100570006092880016C08091B00080688093B000BF
:100580006092B3000EC08091B00080628093B00092
:100590006092B40006C080E8681671040CF0B7CF12
:1005A000B0CF000F111FF801EF5FFB4F7182608227
:1005B0000F90DF91CF911F910F91FF90EF90DF90FF
:1005C000CF90BF90AF909F908F907F906F90089545
:1005D000DB0190919D049C30A8F530919E04682F1A
:1005E00070E0332369F0E32FF0E0EB5CFD4F808196
:1005F000FB01E156FB4F8083315030939E0407C0CE
:10060000FB01E156FB4F90839F5F90939D04FB019C
:10061000E156FB4F808190E09C01220F331F820F37
:10062000931F1A161B0634F4141615061CF49A01AF
:10063000AD0104C020E639E040E252E08F589B4F04
:100640000C94910E49E251E063E181E70C94250995
:100650008F929F92AF92BF92CF92DF92EF92FF92D2
:100660000F931F93CF93DF931F92CDB7DEB7C82EA2
:10067000D12C960120563C4F4901F901E55BFF4F13
:1006800090819F3709F44DC1963041F49091B804A0
:10069000992321F06630710509F025C17B01182FDF
:1006A0000EEF080F0231F8F464307105E1F0F60145
:1006B000E156FB4F80818C30B0F490E0FC01EE0FEE
:1006C000FF1F8E0F9F1FFC01EF58FB4F808190E0B2
:1006D000FC01EE0FFF1F8E0F9F1FFC01E45BFB4F21
:1006E000808186FD06C192EF910F983068F461E039
:1006F00070E082E0E816F10411F060E070E0892F0C
:1007000099830E94ED009981023118F5E12FE69559
:10071000E695E695812F8770F0E0EC57FD4FE114E8
:10072000F10421F02BE0E216F10449F421E030E07D
:1007300001C0220F8A95EAF78081282B09C021E0A9
:1007400030E001C0220F8A95EAF7209580812823A6
:1007500020835601AA0CBB1CF501EF5FFB4F1182F1
:1007600010823CE0E316F10408F0ACC0F701EC5C49
:10077000FF4F0C94F013983008F0D3C0023120F4EE
:1007800060E0812F0E94670CF401E55BFF4F8081E0
:100790008F3709F4C6C082E093C0023108F0C1C0AF
:1007A00060E0812F0E94670CF401E55BFF4F8081C0
:1007B0008F3709F4B6C01082B4C0023108F0B1C05E
:1007C00062E0812F0E94670CF401E55BFF4F80819E
:1007D0008F3711F08BE08083F501EF5FFB4F81E0F5
:1007E00090E0918380839DC0023108F09AC0F401AB
:1007F000E55BFF4F8081833021F460E0812F0E9410
:100800001B0C61E0812F0E94670CF401E55BFF4F38
:1008100080818F3709F485C081E052C0133049F0E0
:100820008BEF810F823028F087EF810F833008F043
:1008300078C061E0812F0E94670C61E0812F0E94E7
:10084000670C60E0812F0E941B0CF401E55BFF4FF9
:1008500080818F3709F465C083E032C0023108F02F
:1008600060C0F401E55BFF4F80818F3711F084E0B9
:100870008083F601E156FB4F80818F3FF1F190E0DC
:10088000FC01EE0FFF1F8E0F9F1FFC01EF58FB4F67
:10089000808190E0FC01EE0FFF1F8E0F9F1FFC0177
:1008A000E45BFB4F808186FD3CC027C012511230B3
:1008B000C0F5F401E55BFF4F80818F3791F186E051
:1008C00080832FC08DE391E00F90DF91CF911F9136
:1008D0000F91FF90EF90DF90CF90BF90AF909F90DF
:1008E0008F900C945E091092B8049FEF90930001D2
:1008F000D5CE812F0E94A500F6CE4FEF5FEF6FEFB0
:100900007FEF812F0F90DF91CF911F910F91FF907B
:10091000EF90DF90CF90BF90AF909F908F900C940E
:10092000E8020F90DF91CF911F910F91FF90EF9010
:10093000DF90CF90BF90AF909F908F9008950F93CE
:100940001F93CF93082F10E0F801EC57FD4F9081D3
:10095000C62FC9230B541B4F411104C0D8019C91D1
:100960009C1771F1682F8091A0039091A103DC0185
:10097000ED91FC916F7060690190F081E02D099517
:100980008091A0039091A103DC01ED91FC916C2F6B
:100990006F770190F081E02D09958091A0039091EF
:1009A000A103DC01ED91FC916C2F70E0660F672FC5
:1009B000661F770B0190F081E02D0995F801C08347
:1009C000CF911F910F910895833020F5282F30E0AB
:1009D000F901E957FD4F6083672BE1F0F901EC570E
:1009E000FD4F9081811103C069B16C7F0FC08130D0
:1009F00049F463B136B140E4349F900111246F7320
:100A0000622B04C066B16C7366956695692341E0FC
:100A10000C949F040895CF92DF92EF92FF920F9370
:100A20001F93CF93DF931F92CDB7DEB7082F6B01D3
:100A3000142F6F3F8FEF780709F181E08093DF0279
:100A4000009301031092E0021092020380E494E00C
:100A500029830E94E50A2981822F0E947709E0916B
:100A60008202F0918302E230F10550F0EE0FFF1F99
:100A7000EE0FFF1F35973197F1F702C0C12CD12C33
:100A80008091DE028111FCCF212F113208F020E28B
:100A900081E08093DE028093DD029FEF9093DC0281
:100AA0001092DB02920F9093DA028093B902809148
:100AB000B902902F990F892B8093B9028091B802C7
:100AC000813061F41092B8028091B9028093BB002A
:100AD0008091BC0083FDF8CF85EC01C085EE80934A
:100AE000BC008091DE028130E1F38091DB0282174D
:100AF00010F42091DB02AAEBB2E04AEB54E0FA01D9
:100B00008E2F841B821718F48D918193F9CF109248
:100B1000DB042093DA04E12EF12C30E0E216F30638
:100B20001CF48EE491E005C02E153F0524F48BE6FD
:100B300091E00E945E0900934202C0924302C12CE0
:100B4000D12CCE14DF0434F49091DA048091DB04CC
:100B5000981310C062E0610F42E452E087E70F9003
:100B6000DF91CF911F910F91FF90EF90DF90CF9089
:100B70000C94250980E494E00E94990AF601EE5B4A
:100B8000FD4F82838FEFC81AD80ADBCFEF92FF9216
:100B90000F931F93CF93DF9390E0FC01E956F10987
:100BA000E231F10508F055C2EA01162FE05CFF4F73
:100BB0000C94F0132981922F987125FF03C087E8C8
:100BC00091E05AC0888131E026FB222720F92327B3
:100BD000983069F160F491113CC23093DF02809348
:100BE00001031092E0021092020302E007C090316C
:100BF00009F43CC0983109F46DC02BC2011778F498
:100C0000FE01E00FF11D8181608120E8829F601963
:100C1000112480E494E00E94E50A0E5FEFCF81E0AA
:100C20000E94770983E191E00197F1F712C24A81AE
:100C30006B81163069F430E8639FB0011124640FB2
:100C4000711D9D814C81E0E89E9F4019112406C0D2
:100C5000F0E86F9F401911246FEF7FEFDF91CF9184
:100C60001F910F91FF90EF900C940B05E091000104
:100C7000E73054F087EA91E0DF91CF911F910F9117
:100C8000FF90EF900C945E099A814B81663069F475
:100C900030E8439FA0011124490F511D3D819C81E3
:100CA00060E8369F9019112406C0F0E84F9F901914
:100CB00011244FEF5FEFEF5FE093000135E0E302B7
:100CC000F0011124E257FD4F8083528341839383C7
:100CD0002483BFC120910001121614F08FEF44C08D
:100CE00090E0622F022E000C770B35E0492F50E088
:100CF0006417750774F0349FF001359FF00D1124CF
:100D0000E257FD4F4081481302C085E026C09F5F37
:100D1000EDCF90E0FACF9830F8F4FA0131968E9F3B
:100D2000D0018F9FB00D1124A257BD4F3C91849FDD
:100D3000F001859FF00D1124E257FD4F308311968D
:100D40004D915C9112975283418313963C91139776
:100D5000338314963C9134839F5F492F50E064178E
:100D60007507CCF68FEF820F8093000172C1288146
:100D7000898160E8869FC0011124820F911D009730
:100D800021F090938302809382028091B8048111B4
:100D900060C1C0E08EEE8C0F823028F466E070E017
:100DA0008C2F0E942803CF5FC631A1F781E080938A
:100DB000B8041092DB041092DA041092E002109250
:100DC00002031092DE028093DD021092B80261E00D
:100DD00082E10E941B0C61E083E10E941B0C809168
:100DE000B9008E7F8093B9008091B9008D7F809388
:100DF000B90088E48093B80085E48093BC0029C1E1
:100E0000653008F426C11881F9800A81EB80CC8115
:100E10008EEF810F823108F01CC1E12FF0E0E15626
:100E2000FB4F20812C30B0F430E0F901EE0FFF1FB2
:100E30002E0F3F1FF901EF58FB4F208130E0F901E1
:100E4000EE0FFF1F2E0F3F1FF901E45BFB4F808168
:100E500086FDFBC080E8C89FA00111244E0D511DE6
:100E600090E8099FB00111246F0D711D812F0E9420
:100E7000E80264E070E0812FDF91CF911F910F9124
:100E8000FF90EF900C942803623008F4E2C02881B0
:100E90008981E0E88E9FC0011124820F911D009787
:100EA00011F481E090E09093020180930101D1C0A0
:100EB000623008F4CEC0698170E0123091F08A810E
:100EC000F0E88F9FC0011124682B792B133049F073
:100ED0008B8190E090E4899F902D88271124682BC6
:100EE000792B8881DF91CF911F910F91FF90EF9027
:100EF0000C94BE0180EF0E946A098CE60E946A0988
:100F0000CEEF84EF8C0F883038F482E00E946A09BB
:100F10008AE00E946A0909C0C13039F483E00E9466
:100F20006A0988E00E946A0908C08DEF8C0F823040
:100F3000A8F389EF8C0F833088F3C23130F484E05A
:100F40000E946A098EE00E946A0980EF8C0F82304D
:100F500030F486E00E946A0981E00E946A098FE706
:100F60000E946A09CF5FC43121F1C23150F680E09E
:100F70000E946A0981E00E946A098BE00E946A0966
:100F800081E00E946A0981E00E946A0981E00E9472
:100F90006A09B7CF662309F45CC0C88180EF0E945C
:100FA0006A098EE60E946A098C2F0E946A09C6317E
:100FB00048F087EFDF91CF911F910F91FF90EF9055
:100FC0000C946A09D0E0FE01E551FC4F80810E943B
:100FD0006A09CC0FDD1F8E010F5F1B4FF801808166
:100FE0008F770E946A09F801808191819C012078A5
:100FF000232B39F0880F892F881F990B8F770E9438
:101000006A09CF5FDB4F888199819C012227307C60
:10101000232B79F2990F880B990F982F881F8F77C0
:101020000E946A09C6CF80EF0E946A098AE60E9480
:101030006A09C2EFC83010F48C2F01C08FE70E94FC
:101040006A09CF5FC830B1F7B4CF812F0E94A500E5
:1010500001CFDF91CF911F910F91FF90EF900895F5
:101060000F931F93CF93DF93EC0100EA13E0D801B5
:101070008D919C91DC01ED91FC916C2F6F7701902B
:10108000F081E02D0995F80180819181DC01ED91DD
:10109000FC91CC0FCD2FCC1FDD0B6C2F6F77019007
:1010A000F081E02DDF91CF911F910F9109948091F4
:1010B000A0039091A103DC01ED91FC910190F081DE
:1010C000E02D67EF09948091A0039091A103DC01CA
:1010D000ED91FC910190F081E02D60EF0994CF93A8
:1010E0000E9463088091A0039091A103DC01ED911F
:1010F000FC910190F081E02D69E709958091A003B2
:101100009091A103DC01ED91FC91A091A303B0911A
:10111000A4030190F081E02D6C9109958091A003CA
:101120009091A103DC01ED91FC91A091A303B091FA
:10113000A4030190F081E02D11966C910995C2E015
:101140008091A203C81760F4E091A303F091A40377
:10115000EC0FF11D808190E00E943008CF5FF0CF4E
:10116000CF910C945708CF93DF93C0EAD3E08881E6
:101170009981DC01ED91FC910190F081E02D69EF06
:10118000099588819981DC01ED91FC910190F081B4
:10119000E02D62E0099588819981DC01ED91FC9157
:1011A0000190F081E02D65E0DF91CF910994CF921D
:1011B000DF92EF92FF920F931F93CF93DF936C0117
:1011C0007A018B01C0E0D0E0CE15DF0589F0D801AF
:1011D0006D918D01D601ED91FC910190F081E02D92
:1011E000C6010995892B11F47E0102C02196ECCF2E
:1011F000C701DF91CF911F910F91FF90EF90DF908A
:10120000CF90089583E093E00E941C0A21E0892B8F
:1012100009F420E0822F08950E942315CF93DF93D5
:10122000EB01A091A003B091A103ED91FC91119766
:101230008F70682F606E0190F081E02DCD010995CF
:10124000CE01DF91CF910C943008EF92FF920F9373
:101250001F93CF93DF9300D01F92CDB7DEB7162F29
:101260004A835B8389830E946308A091A003B091A5
:10127000A103ED91FC9111970190F081E02D8981FE
:10128000682FCD0109954A81042FE42E5B81F52E4C
:101290008E2D801B811738F4F70181917F0190E03A
:1012A0000E943008F5CF0F900F900F90DF91CF91F3
:1012B0001F910F91FF90EF900C945708FC01019043
:1012C0000020E9F73197BF01681B790BAC0181E77A
:1012D0000C942509A091A003B091A103ED91FC917C
:1012E00011970190F081E02D682FCD010994382FDE
:1012F0002091020390910103213208F049C08091AE
:10130000DE028111FCCF42E04093DE023093DD0229
:101310003FEF3093DC021092DB022093DA02A1EE61
:10132000B2E04AEB52E0FA013E2F341B321718F4B8
:101330003D913193F9CF1092B9022091B902990FE2
:10134000922B9093B9029091B802913061F410926F
:10135000B8029091B9029093BB009091BC0093FDAC
:10136000F8CF95EC01C095EE9093BC009091DE0211
:101370009230E1F39091DC029F3F79F08091DC02A2
:10138000803241F08091DC02803331F084E005C08E
:1013900081E003C082E001C083E01092E00210927D
:1013A00002031092DF0208951F920F920FB60F9260
:1013B00011242F933F934F935F936F937F938F935A
:1013C0009F93AF93BF93EF93FF9383E093E00E94CB
:1013D000910BFF91EF91BF91AF919F918F917F9171
:1013E0006F915F914F913F912F910F900FBE0F9092
:1013F0001F901895FC01918D828D981761F0828D58
:10140000DF01A80FB11D5D968C91928D9F5F9F7338
:10141000928F90E008958FEF9FEF0895FC01918DDA
:10142000828D981731F0828DE80FF11D858D90E047
:1014300008958FEF9FEF0895FC01918D228D892FE4
:1014400090E0805C9F4F821B91098F7399270895CC
:1014500080E090E0892B29F00E94020981110C9410
:10146000000008953FB7F8948091270590912805D2
:10147000A0912905B0912A0526B5A89B05C02F3F4C
:1014800019F00196A11DB11D3FBFBA2FA92F982FAA
:101490008827820F911DA11DB11DBC01CD0142E025
:1014A000660F771F881F991F4A95D1F7089585ED1C
:1014B0008093BC008091BC0084FDFCCF1092DE02C2
:1014C00008954091FF04262F30E0240F311D213272
:1014D0003105DCF42091DE022430C9F4FC0180E007
:1014E00090E0861758F43091FF042191DC01A3525B
:1014F000BB4FA30FB11D2C930196F3CF8091FF0436
:10150000680F6093FF0480E0089581E0089582E011
:1015100008950895E091DB048091DA04E81730F42F
:10152000F0E0E654FB4F808190E008958FEF9FEF4D
:1015300008959091DB048091DA04981750F4E92F14
:10154000F0E0E654FB4F208130E09F5F9093DB0496
:1015500002C02FEF3FEFC90108958091DA0490E0B7
:101560002091DB04821B91090895CF92DF92EF92C4
:10157000FF920F931F93CF93DF937C01262F972F1A
:101580008A018091DF02882391F0C62FD72F6E0148
:10159000C40ED51ECC15DD0571F06991D701ED9112
:1015A000FC910190F081E02DC7010995F3CF642FE4
:1015B000822F0E94610AC801DF91CF911F910F9184
:1015C000FF90EF90DF90CF900895CF93DF931F921D
:1015D000CDB7DEB769832091DF022223D1F02091BD
:1015E0000203203240F021E030E0FC01338322830B
:1015F00080E090E015C08091E002E82FF0E0EF512C
:10160000FD4F998190838F5F8093E0028093020366
:1016100005C061E0CE0101960E94610A81E090E080
:101620000F90DF91CF9108950F931F93CF93DF9386
:1016300081E08093B9048091B804882329F0109246
:10164000B8048FEF809300011092870210928402F9
:101650001092B50410928802109285021092B6047E
:1016600010928902109286021092B7040FE914E0DA
:10167000C0E0DFEF82EF8C0F883018F462E070E09A
:1016800006C08EEF8C0F823128F461E070E08C2F61
:101690000E942803F801D1938F01CF5FC63151F723
:1016A0001092B7021092B60210929E0410929D04FE
:1016B0001092B904DF91CF911F910F9108951F925D
:1016C0000F920FB60F9211242F938F939F93EF9346
:1016D000FF93E0911303F09114038081E0911903CB
:1016E000F0911A0382FD12C0908180911C038F5FDC
:1016F0008F7320911D03821751F0E0911C03F0E0DD
:10170000ED5FFC4F958F80931C0301C08081FF919A
:10171000EF919F918F912F910F900FBE0F901F907F
:101720001895FC01848DDF01A80FB11DA35ABF4F8E
:101730002C91848D90E001968F739927848FA689D0
:10174000B7892C93A089B1898C9180648C93938DF7
:10175000848D981306C00288F389E02D80818F7DE7
:1017600080830895EF92FF920F931F93CF93DF939F
:10177000EC0181E0888F9B8D8C8D981305C0E889E2
:10178000F989808185FD24C0F62E0B8D10E00F5F56
:101790001F4F0F731127E02E8C8DE8120CC00FB66F
:1017A00007FCFACFE889F989808185FFF5CFCE0162
:1017B0000E94910BF1CF8B8DFE01E80FF11DE35AD2
:1017C000FF4FF0820B8FEA89FB898081806207C01E
:1017D000EE89FF896083E889F9898081806480834C
:1017E00081E090E0DF91CF911F910F91FF90EF90FA
:1017F0000895CF93DF93EC01888D8823C9F0EA899F
:10180000FB89808185FD05C0A889B9898C9186FDF9
:101810000FC00FB607FCF5CF808185FFF2CFA889F6
:10182000B9898C9185FFEDCFCE010E94910BE7CF56
:10183000DF91CF91089590E0FC01E052FF4F349189
:10184000FC01E453FF4F2491FC01E854FF4FE49165
:10185000EE2309F43BC0332339F1333091F038F4EF
:101860003130A9F0323001F584B58F7D12C03730A8
:1018700091F03830A1F03430B9F4809180008F7D40
:1018800003C0809180008F77809380000DC084B565
:101890008F7784BD09C08091B0008F7703C080919D
:1018A000B0008F7D8093B000F0E0EE0FFF1FE25597
:1018B000FF4FA591B4918FB7F894EC91611103C0DB
:1018C00020952E2301C02E2B2C938FBF0895CF93EC
:1018D000DF9390E0FC01E453FF4F2491FC01E854B6
:1018E000FF4F8491882361F190E0880F991FFC01DC
:1018F000EC55FF4FC591D491FC01E255FF4FA591E6
:10190000B491611109C09FB7F89488812095822312
:101910008883EC912E230BC0623061F49FB7F8945A
:101920003881822F809583238883EC912E2B2C93F2
:101930009FBF06C08FB7F894E8812E2B28838FBFF6
:10194000DF91CF9108958E3008F08E5087708064BB
:1019500080937C0080917A00806480937A008091EB
:101960007A0086FDFCCF809178002091790090E08C
:10197000922B08958F929F92AF92BF92CF92DF9257
:10198000EF92FF926B017C010E94320A4B015C01D5
:10199000C114D104E104F104F1F00E94320ADC0127
:1019A000CB0188199909AA09BB09883E9340A10572
:1019B000B10570F321E0C21AD108E108F10888EE00
:1019C000880E83E0981EA11CB11CC114D104E1044F
:1019D000F10419F7DDCFFF90EF90DF90CF90BF902B
:1019E000AF909F908F9008951F920F920FB60F9215
:1019F00011242F933F938F939F93AF93BF93809125
:101A00008A0290918B02A0918C02B0918D0230914C
:101A1000260523E0230F2D3720F40196A11DB11DCB
:101A200005C026E8230F0296A11DB11D20932605AF
:101A300080938A0290938B02A0938C02B0938D02C4
:101A40008091270590912805A0912905B0912A053C
:101A50000196A11DB11D8093270590932805A093A1
:101A60002905B0932A05BF91AF919F918F913F9126
:101A70002F910F900FBE0F901F9018951F920F92ED
:101A80000FB60F9211240F900FBE0F901F90189554
:101A9000FC01158216821782DC011896885B9F4F25
:101AA0001D92A817B907E1F71C92DF01A75BBF4F92
:101AB0001D921C92E756FF4F0190F081E02D309768
:101AC00009F0099408951F920F920FB60F921124F6
:101AD0002F933F934F935F936F937F938F939F9336
:101AE000AF93BF93EF93FF938091B900887F8036C7
:101AF00009F49CC068F5883209F45BC090F4803129
:101B000009F454C038F4882309F4F6C0883009F485
:101B10004DC0F6C0883109F44CC0803209F45DC074
:101B2000EFC0803409F468C048F4803309F455C02C
:101B3000883309F0E5C08093DC02D8C0803509F411
:101B40004FC0883509F45DC0883409F0D9C0D6C0CB
:101B5000883909F4C7C0A8F4883709F467C038F495
:101B6000883609F463C0803709F460C0C9C088387A
:101B700009F4B8C0803909F45FC0803809F0C0C0EA
:101B80005BC0803B09F486C038F4803A09F466C033
:101B9000883A09F47FC0B4C0803C09F4A7C0883CEF
:101BA00009F4A4C0883B09F48AC0AAC08091B90294
:101BB00010C09091DB028091DA02981770F5E091E5
:101BC000DB0281E08E0F8093DB02F0E0E654FD4FF4
:101BD00080818093BB0085EC86C08093DC028EC040
:101BE000E091DB0281E08E0F8093DB028091BB00ED
:101BF000F0E0E654FD4F80839091DB028091DA02A1
:101C00006EC0E091DB0281E08E0F8093DB02809159
:101C1000BB00F0E0E654FD4F80838091DD0281112E
:101C20006DC081E08093B80284EA61C083E0809354
:101C3000DE0210922305CFCF80912305803208F079
:101C400051C0E091230581E08E0F809323058091A0
:101C5000BB00F0E0ED5FFA4F8083BDCF85EC809351
:101C6000BC001092DE0280912305803230F4E091B6
:101C70002305F0E0ED5FFA4F10826091230570E0DC
:101C8000E0910105F091020583E095E0099510923D
:101C9000230536C084E08093DE0210920005109286
:101CA000FF04E091FD04F091FE0409958091FF048A
:101CB000811105C081E08093FF041092DD04E09162
:101CC000000581E08E0F80930005F0E0E352FB4FAA
:101CD00080818093BB00909100058091FF0498174C
:101CE00008F479CF85E88093BC000AC085EC809326
:101CF000BC001092DE0204C01092DC020E94570A5F
:101D0000FF91EF91BF91AF919F918F917F916F91D3
:101D10005F914F913F912F910F900FBE0F901F90A9
:101D20001895DF92EF92FF920F931F93CF93DF935B
:101D3000EC01D62E7A01890188818C3008F06AC0C6
:101D400061E08D2D0E94670C8881E82FF0E09F01F3
:101D5000220F331FE20FF31FE45BFB4F9D2D9F7398
:101D60002081207CD22ED92AD08260E272E0AB01A1
:101D70004E195F0957FF02C04D5F5F4F559547955C
:101D800055954795498340E659E09A01201B310B50
:101D900037FF02C02D5F3F4F359527953595279525
:101DA0002A836CE00E94E4139CE0899FB001112417
:101DB00040E050E09A01260F371FF901EE0FFF1F98
:101DC0002E0F3F1FF901E45BFB4F908196FD16C07B
:101DD0004F5F5F4F4C30510569F781110FC0109272
:101DE000800082E080938100109285001092840030
:101DF000B19A80916F00826080936F00E881F0E07B
:101E0000CF01880F991FE80FF91FE45BFB4F80811A
:101E1000806480838881DF91CF911F910F91FF9023
:101E2000EF90DF9008951F920F920FB60F9211243A
:101E30002F933F934F935F936F937F938F939F93D2
:101E4000AF93BF93EF93FF938091DC0487FF05C0AE
:101E500010928500109284001BC02091DC04022E99
:101E6000000C330B8091700490E02817390784F43C
:101E70008091DC04082E000C990BFC01EE0FFF1F73
:101E80008E0F9F1FFC01E45BFB4F808186FD15C018
:101E90008091DC048F5F8093DC042091DC04022EAF
:101EA000000C330B8091700490E028173907C4F4BC
:101EB0008091DC048C3064F113C08091DC04082E26
:101EC000000C990BFC01EE0FFF1F8E0F9F1FFC01F2
:101ED000E45BFB4F808160E08F730E941B0CD8CFC6
:101EE0008091840090918500049680349C4918F478
:101EF00080E49CE905C0809184009091850004965F
:101F000090938900809388008FEF8093DC043BC01E
:101F100020918400309185008091DC04082E000C13
:101F2000990BFC01EE0FFF1F8E0F9F1FFC01E45B5E
:101F3000FB4F81819281820F931F90938900809340
:101F400088008091DC04082E000C990BFC01EE0F38
:101F5000FF1F8E0F9F1FFC01E45BFB4F808186FFFC
:101F600012C08091DC04082E000C990BFC01EE0FCE
:101F7000FF1F8E0F9F1FFC01E45BFB4F808161E020
:101F80008F730E941B0CFF91EF91BF91AF919F91B6
:101F90008F917F916F915F914F913F912F910F9012
:101FA0000FBE0F901F901895CF92DF92EF92FF9285
:101FB000109206031092050378EEC72E73E0D72E19
:101FC000E12CF12CC0920703D0920803E0920903A0
:101FD000F0920A038DE091E0909304038093030351
:101FE00085EC90E09093100380930F0384EC90E0D5
:101FF000909312038093110380EC90E0909314036C
:102000008093130381EC90E0909316038093150363
:1020100082EC90E0909318038093170386EC90E095
:1020200090931A038093190310921C0310921D03BE
:1020300010921E0310921F031092A2031092A40389
:102040001092A30310923F0480EA93E00E94480D8F
:102050001092430410924204C0924404D09245046A
:10206000E0924604F09247048DE191E090934104A0
:102070008093400480917004A1E7B4E09FEF48EBA7
:102080005BE08C3078F48C93282F30E0F901EE0F70
:10209000FF1F2E0F3F1FF901E45BFB4F528341836B
:1020A0008F5F01C09C93139624E0A539B20749F7CE
:1020B00080937004FF90EF90DF90CF900895789414
:1020C00084B5826084BD84B5816084BD85B582603D
:1020D00085BD85B5816085BD80916E0081608093EE
:1020E0006E00109281008091810082608093810057
:1020F0008091810081608093810080918000816067
:10210000809380008091B10084608093B1008091C1
:10211000B00081608093B00080917A0084608093E9
:102120007A0080917A00826080937A0080917A00B0
:10213000816080937A0080917A00806880937A0031
:102140001092C10083E28093A2038091A303909137
:10215000A4030E948B14C091A203D0E0CE0101968B
:102160000E94F6139093A4038093A303FC01EC0F49
:10217000FD1F108212E0DC011C9325E011962C93C8
:10218000AE014250510964E172E002960E942815A6
:102190008EEB91E090932E0480932D0482E291E0E7
:1021A0009093300480932F048DEE90E0909332044E
:1021B0008093310484EE94E090933404809333044C
:1021C00088E293E0909336048093350488ED90E0A4
:1021D000909338048093370486EC95E090933E0406
:1021E00080933D0484E19BE090933A04809339040A
:1021F000E0911303F09114031083E0911303F09125
:1022000014031082E0910F03F09110031082E0910B
:102210001103F091120380E1808310921B03E0917F
:102220001703F091180386E08083E0911503F09185
:102230001603808180618083E0911503F09116037D
:10224000808188608083E0911503F091160380817E
:1022500080688083E0911503F091160380818F7D63
:10226000808383E093E09093A1038093A003809107
:102270003F04811150C061E08DE00E94670C62ED67
:1022800070E080E090E00E94BA0C61E08DE00E9476
:102290001B0C68E270E080E090E00E94BA0C60E005
:1022A0008DE00E941B0C62ED70E080E090E00E94E7
:1022B000BA0C61E08DE00E941B0C68E270E080E0E7
:1022C00090E00E94BA0C60E08DE00E941B0C6AEF67
:1022D00070E080E090E00E94BA0CC0E062ED70E037
:1022E00080E090E00E94BA0C61E08DE00E941B0C3F
:1022F00068E270E080E090E00E94BA0C60E08DE05F
:102300000E941B0CCF5FC53049F76DE770E080E09D
:1023100090E00E94BA0C0E94B3088091A203811140
:102320000E946F080E94140BBB24B39432E0A32ECA
:1023300015E080918702882349F069B18091840279
:1023400068236C7F40E080E00E949F0480918802B7
:10235000882379F063B196B1B0E49B9FC00111244A
:102360006F73862B60918502682340E081E00E94B4
:102370009F04809189028823D9F066B16C736695B9
:10238000669580918602682340E082E00E949F0467
:102390000FC08091A0039091A103EC01E881F98125
:1023A0000680F781E02D09958F3FDFEF9D0771F4DF
:1023B0008091A0039091A103DC01ED91FC91048038
:1023C000F581E02D0995892B21F71EC1382F209129
:1023D000E803222309F467C0873F09F055C0109233
:1023E000E8038091A803813751F0893709F03EC096
:1023F0008091A2038823E1F20E946F08D9CFE09177
:102400003B04F0913C04309799F22091E90330911C
:10241000EA03C901019797FDC90195958795082F92
:10242000A8EAB3E040E050E030E04E5F5F4F301785
:1024300070F4BA0160567C4FEB012F812C936885B4
:10244000D0E86D9F201911242D933F5FEECF99277F
:10245000DC01A056BC4F17968C911797882311F07A
:1024600018961C9288EA93E00995A2CFE0913D046A
:10247000F0913E04309709F49BCF6091E9036150DD
:1024800049EA53E0099594CF2091E9033091EA039A
:10249000F901E056FC4F80872F5F3F4F3093EA03EE
:1024A0002093E90385CF2091A503222309F469C075
:1024B00087FD67C09FEF920F9093A503E92FF0E08F
:1024C000E056FC4F8087911173CF8091A60388233B
:1024D00009F46ECF803D09F445C050F4803901F114
:1024E000803C09F04BC0E0913104F09132043EC0D1
:1024F000843F39F1853F51F1803E09F03FC0E091C2
:102500002D04F0912E043097C9F18091A8036091B9
:10251000A90370E020E8829F600D711D11242BC07B
:10252000E0912F04F0913004309741F18091A8039D
:102530006091A90370E090E8899F600D711D1124DE
:102540001AC0E0913504F091360404C0E0913704DC
:10255000F0913804309791F06091A80370E0809179
:10256000A9030BC0E0913304F0913404309731F0AB
:102570006091A80370E08091A70309951092A603CB
:1025800017CF303F38F4282F207F30E08F708093B2
:10259000A70302C09C013327203F310559F17CF489
:1025A000203C310511F124F420393105D9F000CF58
:1025B000203D3105D1F0203E3105A1F0F9CE293F73
:1025C0003105F9F034F4C901845F9109029750F0A4
:1025D000EFCE2F3F310509F0EBCE80EA93E00E9469
:1025E000480DE6CEA092A50302C0B092A5032093A9
:1025F000A603DECEB092E8031092EA031092E9033C
:10260000D7CE0E94B308D4CE8FB7F894C0908A0278
:10261000D0908B02E0908C02F0908D028FBFC09220
:102620009904D0929A04E0929B04F0929C048091C9
:10263000950490919604A0919704B09198044091CC
:1026400001015091020160E070E0C81AD90AEA0A5B
:10265000FB0A4C155D056E057F0508F04FC0840F21
:10266000951FA61FB71F8093950490939604A0937F
:102670009704B09398048BEEE82E83E0F82E02EFD7
:102680000830B8F4E7018881823099F48091B6026D
:102690009091B702002E02C0959587950A94E2F7B3
:1026A00080FF07C0802F0E94A30CBC01802F0E94D6
:1026B0000E090F5FDFEFED1AFD0A083009F7809170
:1026C000000187FD1BC000E0202F30E08091000159
:1026D000082E000C990B8217930784F0129FF001CB
:1026E000139FF00D1124E257FD4F61817281248107
:1026F000438180810E940B050F5FE6CF0E94280A6C
:1027000018CE052E97FB1EF400940E94981357FDD7
:1027100007D00E94B31307FC03D04EF40C94981317
:1027200050954095309521953F4F4F4F5F4F0895FD
:1027300090958095709561957F4F8F4F9F4F08952D
:102740000E94D513A59F900DB49F900DA49F800D5E
:10275000911D11240895B7FF0C94A0130E94A0139B
:10276000821B930B0895A1E21A2EAA1BBB1BFD012D
:102770000DC0AA1FBB1FEE1FFF1FA217B307E40760
:10278000F50720F0A21BB30BE40BF50B661F771FB8
:10279000881F991F1A9469F7609570958095909598
:1027A0009B01AC01BD01CF010895A29FB001B39F71
:1027B000C001A39F700D811D1124911DB29F700D4A
:1027C000811D1124911D0895991B79E004C0991F62
:1027D000961708F0961B881F7A95C9F7809508957B
:1027E000EE0FFF1F0590F491E02D0994CF93DF9336
:1027F0008230910510F482E090E0E0912D05F09197
:102800002E0520E030E0C0E0D0E0309711F14081AB
:10281000518148175907C0F04817590761F4828160
:102820009381209719F09B838A832BC090932E0568
:1028300080932D0526C02115310519F04217530745
:1028400018F49A01BE01DF01EF010280F381E02D4F
:10285000DCCF2115310509F1281B390B2430310556
:1028600090F412968D919C9113976115710521F04A
:10287000FB019383828304C090932E0580932D05E2
:10288000FD01329644C0FD01E20FF31F8193919345
:10289000225031092D933C933AC020912B05309161
:1028A0002C05232B41F42091050130910601309332
:1028B0002C0520932B052091030130910401211553
:1028C000310541F42DB73EB7409107015091080101
:1028D000241B350BE0912B05F0912C05E217F30733
:1028E000A0F42E1B3F0B2817390778F0AC014E5F80
:1028F0005F4F2417350748F04E0F5F1F50932C058C
:1029000040932B058193919302C0E0E0F0E0CF016A
:10291000DF91CF9108950F931F93CF93DF9300978B
:1029200009F48CC0FC0132971382128200912D05AC
:1029300010912E050115110581F420813181820F3E
:10294000931F20912B0530912C052817390779F515
:10295000F0932C05E0932B0571C0D80140E050E0C6
:10296000AE17BF0750F412962D913C911397AD010D
:102970002115310509F1D901F3CF9D01DA01338326
:10298000228360817181860F971F8217930769F4F4
:10299000EC0128813981260F371F2E5F3F4F31838D
:1029A00020838A819B8193838283452B29F4F09332
:1029B0002E05E0932D0542C01396FC93EE931297DB
:1029C000ED01499159919E01240F351FE217F3073C
:1029D00071F480819181840F951F029611969C93CA
:1029E0008E938281938113969C938E931297E0E04D
:1029F000F0E0D80112968D919C911397009719F0F1
:102A0000F8018C01F6CF8D919C9198012E5F3F4F7C
:102A1000820F931F20912B0530912C052817390721
:102A200069F4309729F410922E0510922D0502C0FA
:102A30001382128210932C0500932B05DF91CF9106
:102A40001F910F91089581E090E0F8940C94371550
:102A5000FB01DC014150504048F001900D920020F4
:102A6000C9F701C01D9241505040E0F70895F89415
:022A7000FFCF96
:102A7200FF130000002F05800000000000B20BD7FA
:102A8200081C0AFA090E0AF90B00000000E50AB553
:102A92000AAD0A990A8A0A890A4D61782073657219
:102AA200766F7320617474616368656400556E6B40
:102AB2006E6F776E2070696E206D6F6465004932AB
:102AC200433A20546F6F206D616E7920627974658C
:102AD20073207265636569766564004932433A2002
:102AE200546F6F2066657720627974657320726512
:102AF2006365697665640031302D626974206164B2
:102B02006472657373696E67206E6F74207375707B
:102B1200706F7274656400746F6F206D616E7920DE
:102B22007175657269657300433A5C75736572739A
:102B32005C6173645C446F63756D656E74735C5045
:102B4200726F63657373696E675C5F5C515F73611B
:102B5200775F53657474696E67735C4E6577206640
:102B62006F6C6465725C515F7361775F53657474F7
:102B7200696E67735F5F5F5F5F73696D706C655FDE
:102B82003332385C515F7361775F53657474696E79
:102B920067735F5F5F5F5F73696D706C655F333230
:062BA200382E696E6F0081
:00000001FF
